:100000000C945D000C9485000C9485000C94850084
:100010000C9485000C9485000C9485000C9485004C
:100020000C9485000C9485000C9485000C9485003C
:100030000C9485000C9485000C9485000C9485002C
:100040000C9484030C9485000C9452030C942C03A0
:100050000C9485000C9485000C9485000C9485000C
:100060000C9485000C94850000000008000201003B
:100070000003040700000000000000000000000072
:10008000250028002B0000000000240027002A0083
:10009000040404040404040402020202020203032E
:1000A0000303030301020408102040800102040836
:1000B0001020010204081020B80411241FBECFEF45
:1000C000D8E0DEBFCDBF11E0A0E0B1E0EEE1FAE0A4
:1000D00002C005900D92A631B107D9F721E0A6E143
:1000E000B1E001C01D92AE3BB207E1F710E0CDE5F3
:1000F000D0E004C02197FE010E940705CC35D1074E
:10010000C9F70E94CE030C940D050C94000090E0FA
:10011000FC01EC55FF4F249180579F4FFC018491C7
:10012000882399F090E0880F991FFC01EA57FF4F50
:10013000A591B491FC01E458FF4F859194918FB73C
:10014000F894EC91E22BEC938FBF0895AF92BF929D
:10015000CF92DF92EF92FF920F931F93CF93DF9393
:100160006C017B018B01040F151FEB015E01AE18C2
:10017000BF08C017D10759F06991D601ED91FC91E4
:100180000190F081E02DC6010995892B79F7C50111
:10019000DF91CF911F910F91FF90EF90DF90CF9063
:1001A000BF90AF900895FC01538D448D252F30E012
:1001B000842F90E0821B930B541710F0CF96089574
:1001C00001970895FC01918D828D981761F0A28DA1
:1001D000AE0FBF2FB11D5D968C91928D9F5F9F7367
:1001E000928F90E008958FEF9FEF0895FC01918D1D
:1001F000828D981731F0828DE80FF11D858D90E08A
:1002000008958FEF9FEF0895FC01918D228D892F26
:1002100090E0805C9F4F821B91098F73992708950E
:1002200081E291E00E94040121E0892B09F420E0A1
:10023000822F089580E090E0892B29F00E94100120
:1002400081110C9400000895FC01A48DA80FB92F12
:10025000B11DA35ABF4F2C91848D90E001968F73EE
:100260009927848FA689B7892C93A089B1898C910D
:10027000837080648C93938D848D981306C002885C
:10028000F389E02D80818F7D80830895EF92FF9226
:100290000F931F93CF93DF93EC0181E0888F9B8DA9
:1002A0008C8D98131AC0E889F989808185FF15C063
:1002B0009FB7F894EE89FF896083E889F989808186
:1002C0008370806480839FBF81E090E0DF91CF9155
:1002D0001F910F91FF90EF900895F62E0B8D10E077
:1002E0000F5F1F4F0F731127E02E8C8D8E110CC0E6
:1002F0000FB607FCFACFE889F989808185FFF5CF31
:10030000CE010E942401F1CFEB8DEC0FFD2FF11DEA
:10031000E35AFF4FF0829FB7F8940B8FEA89FB896D
:1003200080818062CFCFCF93DF93EC01888D8823CB
:10033000B9F0AA89BB89E889F9898C9185FD03C048
:10034000808186FD0DC00FB607FCF7CF8C9185FF2D
:10035000F2CF808185FFEDCFCE010E942401E9CF4D
:10036000DF91CF91089590E0FC01E859FF4F24916F
:10037000FC01EC55FF4F3491FC01E057FF4FE49135
:10038000EE23C9F0222339F0233001F1A8F4213003
:1003900019F1223029F1F0E0EE0FFF1FE458FF4F72
:1003A000A591B4918FB7F894EC91611126C0309566
:1003B0003E233C938FBF08952730A9F02830C9F021
:1003C000243049F7809180008F7D03C080918000A8
:1003D0008F7780938000DFCF84B58F7784BDDBCFAC
:1003E00084B58F7DFBCF8091B0008F778093B00074
:1003F000D2CF8091B0008F7DF9CF3E2BDACF1F9303
:10040000CF93DF93182FEB010E948700209739F4D8
:1004100060E0812FDF91CF911F910C94B301CF3F0A
:10042000D10511F461E0F5CFE12FF0E0E859FF4F7D
:10043000E491E33031F140F4E130B1F0E230E1F049
:10044000C038D1057CF7E4CFE73029F1E83059F125
:10045000E430B1F780918000806280938000D09377
:100460008B00C0938A0004C084B5806884BDC7BD7A
:10047000DF91CF911F91089584B5806284BDC8BD7E
:10048000F7CF80918000806880938000D0938900AE
:10049000C0938800EDCF8091B00080688093B00059
:1004A000C093B300E5CF8091B00080628093B0002C
:1004B000C093B400DDCF3FB7F89480911B019091B9
:1004C0001C01A0911D01B0911E0126B5A89B05C07D
:1004D0002F3F19F00196A11DB11D3FBFBA2FA92FC3
:1004E000982F8827BC01CD01620F711D811D911DC0
:1004F00042E0660F771F881F991F4A95D1F708952C
:100500008F929F92AF92BF92CF92DF92EF92FF9223
:100510000E945B024B015C018EE1C82ED12CE12CC4
:10052000F12C0E945B02681979098A099B09683ECF
:10053000734081059105A8F321E0C21AD108E108B2
:10054000F10888EE880E83E0981EA11CB11CC1142E
:10055000D104E104F10429F7FF90EF90DF90CF90F0
:10056000BF90AF909F908F9008958F929F92AF927F
:10057000BF920F931F93CF93DF93CDB7DEB7A197B1
:100580000FB6F894DEBF0FBECDBF19A2423008F4FB
:100590004AE08E010F5D1F4F842E912CB12CA12CAF
:1005A000A50194010E94E504E62FB901CA01EA30D1
:1005B00044F5E05DD801EE938D01232B242B252BF0
:1005C00079F790E080E0109769F0FD01019000203C
:1005D000E9F73197AF014A1B5B0BBD0181E291E066
:1005E0000E94A600A1960FB6F894DEBF0FBECDBF45
:1005F000DF91CF911F910F91BF90AF909F908F90FF
:100600000895E95CD7CFCF92DF92EF92FF92CF931C
:10061000DF936B017C016DE281E291E00E94460173
:10062000EC0166277727CB016C197D098E099F099C
:100630004AE00E94B5028C0F9D1FDF91CF91FF9081
:10064000EF90DF90CF90089542E050E062E171E0DA
:1006500081E291E00C94A6001F920F920FB60F92C8
:1006600011242F933F934F935F936F937F938F93B7
:100670009F93AF93BF93EF93FF9381E291E00E942A
:100680002401FF91EF91BF91AF919F918F917F9145
:100690006F915F914F913F912F910F900FBE0F90EF
:1006A0001F9018951F920F920FB60F9211242F933F
:1006B0008F939F93EF93FF93E0913101F09132017B
:1006C0008081E0913701F091380182FD1BC090815B
:1006D00080913A018F5F8F7320913B01821741F027
:1006E000E0913A01F0E0EF5DFE4F958F80933A0183
:1006F000FF91EF919F918F912F910F900FBE0F90CF
:100700001F9018958081F4CF1F920F920FB60F9211
:1007100011242F933F938F939F93AF93BF93809117
:10072000170190911801A0911901B0911A0130910F
:10073000160123E0230F2D3758F50196A11DB11D99
:10074000209316018093170190931801A09319012B
:10075000B0931A0180911B0190911C01A0911D0181
:10076000B0911E010196A11DB11D80931B019093B4
:100770001C01A0931D01B0931E01BF91AF919F91E9
:100780008F913F912F910F900FBE0F901F90189552
:1007900026E8230F0296A11DB11DD2CF789484B50F
:1007A000826084BD84B5816084BD85B5826085BD6D
:1007B00085B5816085BD80916E00816080936E00FB
:1007C00010928100809181008260809381008091ED
:1007D000810081608093810080918000816080939E
:1007E00080008091B10084608093B1008091B0005E
:1007F00081608093B00080917A00846080937A0059
:1008000080917A00826080937A0080917A00816082
:1008100080937A0080917A00806880937A001092A9
:10082000C1008BE00E9487008AE00E948700E0916F
:100830003101F091320182E08083E0912D01F0914D
:100840002E011082E0912F01F09130018FEC808316
:1008500010923901E0913501F091360186E08083F4
:10086000E0913301F0913401808180618083E091D7
:100870003301F0913401808188608083E0913301FD
:10088000F0913401808180688083E0913301F091A0
:10089000340180818F7D80830FEF10E080E0E82EAF
:1008A00080E0F82E1093200100931F01C0911F01DA
:1008B000D09120011C161D06FCF4BE018BE00E94A5
:1008C000FF01B8016C1B7D0B8AE00E94FF01BE0195
:1008D000DD0F880B990B4AE00E94B5020E942403A9
:1008E0000E94800280911F019091200101979093B6
:1008F000200180931F01DACF1092200110921F0176
:10090000C0911F01D0912001CF3FD1052CF5BE0130
:100910008BE00E94FF01B8016C1B7D0B8AE00E94F6
:10092000FF01BE010D2E000C880B990BD7FF10C0E4
:100930000E9403030E9424030E94800280911F01F1
:100940009091200101969093200180931F01D8CFB0
:100950004AE00E94B502EECFE114F10409F4A2CFFF
:100960000E941001882309F49DCF0E9400009ACFB5
:10097000E1E2F1E01382128288EE93E0A0E0B0E0C1
:1009800084839583A683B78384E091E091838083F9
:1009900085EC90E09587848784EC90E09787868744
:1009A00080EC90E0918B808B81EC90E0938B828B3C
:1009B00082EC90E0958B848B86EC90E0978B868B15
:1009C000118E128E138E148E0895A1E21A2EAA1B78
:1009D000BB1BFD010DC0AA1FBB1FEE1FFF1FA217EF
:1009E000B307E407F50720F0A21BB30BE40BF50BEC
:1009F000661F771F881F991F1A9469F76095709575
:100A0000809590959B01AC01BD01CF010895EE0F3B
:0E0A1000FF1F0590F491E02D0994F894FFCF9C
:100A1E00000000004601A600D30093010401E2008D
:060A2E00F6000D0A0000B5
:00000001FF
